:100000000C9434000C948E000C9446000C94460022
:100010000C9446000C9446000C9446000C94460048
:100020000C9446000C9446000C9461000C9446001D
:100030000C9446000C9446000C9446000C94460028
:100040000C9446000C9446000C9446000C94460018
:100050000C9446000C9446000C9446000C94460008
:100060000C9446000C94460011241FBECFEFD8E03C
:10007000DEBFCDBF21E0A0E0B1E001C01D92A43001
:10008000B207E1F70E94A2000C94A9000C940000B2
:1000900088E08AB984B90895F89483E08093690070
:1000A00081E08DBB80EC8093810080E280936F00C3
:1000B0007894089580EA8093B00083E08093B10043
:1000C00008951F920F920FB60F9211248F939F9352
:1000D0008091810086FF0EC08091860090918700FC
:1000E0009093030180930201809181008F7B809324
:1000F00081000DC080910101882329F080910001C9
:100100001092B30004C0809100011092B4009F913E
:100110008F910F900FBE0F901F9018951F920F9206
:100120000FB60F9211248F939F938091010191E05C
:100130008927809301019F918F910F900FBE0F909F
:100140001F9018950E9448000E945A000E944C007F
:06015000FFCFF894FFCF81
:00000001FF
